{
    "contractName": "Main",
    "abi": [
        {
            "inputs": [],
            "stateMutability": "nonpayable",
            "type": "constructor"
        },
        {
            "anonymous": false,
            "inputs": [
                {
                    "indexed": true,
                    "internalType": "address",
                    "name": "previousOwner",
                    "type": "address"
                },
                {
                    "indexed": true,
                    "internalType": "address",
                    "name": "newOwner",
                    "type": "address"
                }
            ],
            "name": "OwnershipTransferred",
            "type": "event"
        },
        {
            "inputs": [
                {
                    "internalType": "string",
                    "name": "name",
                    "type": "string"
                },
                {
                    "internalType": "uint256",
                    "name": "cardCount",
                    "type": "uint256"
                }
            ],
            "name": "createCollection",
            "outputs": [],
            "stateMutability": "nonpayable",
            "type": "function"
        },
        {
            "inputs": [
                {
                    "internalType": "uint256",
                    "name": "tokenId",
                    "type": "uint256"
                }
            ],
            "name": "getTokenURI",
            "outputs": [
                {
                    "internalType": "string",
                    "name": "",
                    "type": "string"
                }
            ],
            "stateMutability": "view",
            "type": "function"
        },
        {
            "inputs": [
                {
                    "internalType": "address",
                    "name": "user",
                    "type": "address"
                },
                {
                    "internalType": "uint256",
                    "name": "collectionIndex",
                    "type": "uint256"
                },
                {
                    "internalType": "uint256",
                    "name": "tokenId",
                    "type": "uint256"
                },
                {
                    "internalType": "uint256",
                    "name": "cardNumber",
                    "type": "uint256"
                },
                {
                    "internalType": "string",
                    "name": "imgUri",
                    "type": "string"
                }
            ],
            "name": "mintCardToUser",
            "outputs": [],
            "stateMutability": "nonpayable",
            "type": "function"
        },
        {
            "inputs": [],
            "name": "owner",
            "outputs": [
                {
                    "internalType": "address",
                    "name": "",
                    "type": "address"
                }
            ],
            "stateMutability": "view",
            "type": "function"
        },
        {
            "inputs": [],
            "name": "renounceOwnership",
            "outputs": [],
            "stateMutability": "nonpayable",
            "type": "function"
        },
        {
            "inputs": [
                {
                    "internalType": "address",
                    "name": "newOwner",
                    "type": "address"
                }
            ],
            "name": "transferOwnership",
            "outputs": [],
            "stateMutability": "nonpayable",
            "type": "function"
        }
    ],
    "bytecode": "608060405234801561001057600080fd5b5061001a33610024565b6000600155610074565b600080546001600160a01b038381166001600160a01b0319831681178455604051919092169283917f8be0079c531659141344cd1fd0a4f28419497f9722a3daafe3b4186f6b6457e09190a35050565b6126d3806100836000396000f3fe60806040523480156200001157600080fd5b50600436106200006a5760003560e01c80633bb3a24d146200006f57806364d54151146200009e578063715018a614620000b757806374947a2e14620000c15780638da5cb5b14620000d8578063f2fde38b14620000f4575b600080fd5b620000866200008036600462000495565b6200010b565b604051620000959190620004f7565b60405180910390f35b620000b5620000af36600462000513565b620001b5565b005b620000b562000244565b620000b5620000d2366004620005c3565b6200025c565b6000546040516001600160a01b03909116815260200162000095565b620000b562000105366004620006ae565b6200035c565b60008181526003602052604090208054606091906200012a90620006cc565b80601f01602080910402602001604051908101604052809291908181526020018280546200015890620006cc565b8015620001a95780601f106200017d57610100808354040283529160200191620001a9565b820191906000526020600020905b8154815290600101906020018083116200018b57829003601f168201915b50505050509050919050565b620001bf620003db565b6000838383604051620001d29062000487565b620001e09392919062000708565b604051809103906000f080158015620001fd573d6000803e3d6000fd5b5060018054600090815260026020526040812080546001600160a01b0319166001600160a01b0385161790558154929350620002398362000741565b919050555050505050565b6200024e620003db565b6200025a600062000437565b565b62000266620003db565b6001548410620002bd5760405162461bcd60e51b815260206004820152601960248201527f436f6c6c656374696f6e20646f6573206e6f742065786973740000000000000060448201526064015b60405180910390fd5b6000848152600260205260409081902054905163330fe3df60e01b81526001600160a01b0390911690819063330fe3df906200030490899088908890889060040162000769565b600060405180830381600087803b1580156200031f57600080fd5b505af115801562000334573d6000803e3d6000fd5b50505060008581526003602052604090209050620003538382620007f5565b50505050505050565b62000366620003db565b6001600160a01b038116620003cd5760405162461bcd60e51b815260206004820152602660248201527f4f776e61626c653a206e6577206f776e657220697320746865207a65726f206160448201526564647265737360d01b6064820152608401620002b4565b620003d88162000437565b50565b6000546001600160a01b031633146200025a5760405162461bcd60e51b815260206004820181905260248201527f4f776e61626c653a2063616c6c6572206973206e6f7420746865206f776e65726044820152606401620002b4565b600080546001600160a01b038381166001600160a01b0319831681178455604051919092169283917f8be0079c531659141344cd1fd0a4f28419497f9722a3daafe3b4186f6b6457e09190a35050565b611ddb80620008c383390190565b600060208284031215620004a857600080fd5b5035919050565b6000815180845260005b81811015620004d757602081850181015186830182015201620004b9565b506000602082860101526020601f19601f83011685010191505092915050565b6020815260006200050c6020830184620004af565b9392505050565b6000806000604084860312156200052957600080fd5b833567ffffffffffffffff808211156200054257600080fd5b818601915086601f8301126200055757600080fd5b8135818111156200056757600080fd5b8760208285010111156200057a57600080fd5b6020928301989097509590910135949350505050565b80356001600160a01b0381168114620005a857600080fd5b919050565b634e487b7160e01b600052604160045260246000fd5b600080600080600060a08688031215620005dc57600080fd5b620005e78662000590565b9450602086013593506040860135925060608601359150608086013567ffffffffffffffff808211156200061a57600080fd5b818801915088601f8301126200062f57600080fd5b813581811115620006445762000644620005ad565b604051601f8201601f19908116603f011681019083821181831017156200066f576200066f620005ad565b816040528281528b60208487010111156200068957600080fd5b8260208601602083013760006020848301015280955050505050509295509295909350565b600060208284031215620006c157600080fd5b6200050c8262000590565b600181811c90821680620006e157607f821691505b6020821081036200070257634e487b7160e01b600052602260045260246000fd5b50919050565b604081528260408201528284606083013760006060848301015260006060601f19601f8601168301019050826020830152949350505050565b6000600182016200076257634e487b7160e01b600052601160045260246000fd5b5060010190565b60018060a01b0385168152836020820152826040820152608060608201526000620007986080830184620004af565b9695505050505050565b601f821115620007f057600081815260208120601f850160051c81016020861015620007cb5750805b601f850160051c820191505b81811015620007ec57828155600101620007d7565b5050505b505050565b815167ffffffffffffffff811115620008125762000812620005ad565b6200082a81620008238454620006cc565b84620007a2565b602080601f831160018114620008625760008415620008495750858301515b600019600386901b1c1916600185901b178555620007ec565b600085815260208120601f198616915b82811015620008935788860151825594840194600190910190840162000872565b5085821015620008b25787850151600019600388901b60f8161c191681555b5050505050600190811b0190555056fe60806040523480156200001157600080fd5b5060405162001ddb38038062001ddb833981016040819052620000349162000110565b60408051808201909152600481526310d3d31360e21b6020820152829060006200005f83826200027a565b5060016200006e82826200027a565b5050506200008b62000085620000a460201b60201c565b620000a8565b60086200009983826200027a565b506009555062000346565b3390565b600780546001600160a01b038381166001600160a01b0319831681179093556040519116919082907f8be0079c531659141344cd1fd0a4f28419497f9722a3daafe3b4186f6b6457e090600090a35050565b634e487b7160e01b600052604160045260246000fd5b600080604083850312156200012457600080fd5b82516001600160401b03808211156200013c57600080fd5b818501915085601f8301126200015157600080fd5b815181811115620001665762000166620000fa565b604051601f8201601f19908116603f01168101908382118183101715620001915762000191620000fa565b81604052828152602093508884848701011115620001ae57600080fd5b600091505b82821015620001d25784820184015181830185015290830190620001b3565b6000928101840192909252509401519395939450505050565b600181811c908216806200020057607f821691505b6020821081036200022157634e487b7160e01b600052602260045260246000fd5b50919050565b601f8211156200027557600081815260208120601f850160051c81016020861015620002505750805b601f850160051c820191505b8181101562000271578281556001016200025c565b5050505b505050565b81516001600160401b03811115620002965762000296620000fa565b620002ae81620002a78454620001eb565b8462000227565b602080601f831160018114620002e65760008415620002cd5750858301515b600019600386901b1c1916600185901b17855562000271565b600085815260208120601f198616915b828110156200031757888601518255948401946001909101908401620002f6565b5085821015620003365787850151600019600388901b60f8161c191681555b5050505050600190811b01905550565b611a8580620003566000396000f3fe608060405234801561001057600080fd5b50600436106101215760003560e01c806370a08231116100ad578063b88d4fde11610071578063b88d4fde1461024d578063c87b56dd14610260578063e5326ab114610273578063e985e9c51461027b578063f2fde38b1461028e57600080fd5b806370a0823114610206578063715018a6146102195780638da5cb5b1461022157806395d89b4114610232578063a22cb4651461023a57600080fd5b80631b6cde10116100f45780631b6cde10146101a357806323b872dd146101ba578063330fe3df146101cd57806342842e0e146101e05780636352211e146101f357600080fd5b806301ffc9a71461012657806306fdde031461014e578063081812fc14610163578063095ea7b31461018e575b600080fd5b6101396101343660046113b4565b6102a1565b60405190151581526020015b60405180910390f35b6101566102cc565b6040516101459190611421565b610176610171366004611434565b61035e565b6040516001600160a01b039091168152602001610145565b6101a161019c366004611469565b610385565b005b6101ac60095481565b604051908152602001610145565b6101a16101c8366004611493565b61049f565b6101a16101db36600461155b565b6104d0565b6101a16101ee366004611493565b61052b565b610176610201366004611434565b610546565b6101ac6102143660046115d0565b6105a6565b6101a161062c565b6007546001600160a01b0316610176565b610156610640565b6101a16102483660046115eb565b61064f565b6101a161025b366004611627565b61065e565b61015661026e366004611434565b610696565b6101566107a6565b610139610289366004611677565b610834565b6101a161029c3660046115d0565b610862565b60006001600160e01b03198216632483248360e11b14806102c657506102c6826108db565b92915050565b6060600080546102db906116aa565b80601f0160208091040260200160405190810160405280929190818152602001828054610307906116aa565b80156103545780601f1061032957610100808354040283529160200191610354565b820191906000526020600020905b81548152906001019060200180831161033757829003601f168201915b5050505050905090565b60006103698261092b565b506000908152600460205260409020546001600160a01b031690565b600061039082610546565b9050806001600160a01b0316836001600160a01b0316036104025760405162461bcd60e51b815260206004820152602160248201527f4552433732313a20617070726f76616c20746f2063757272656e74206f776e656044820152603960f91b60648201526084015b60405180910390fd5b336001600160a01b038216148061041e575061041e8133610834565b6104905760405162461bcd60e51b815260206004820152603d60248201527f4552433732313a20617070726f76652063616c6c6572206973206e6f7420746f60448201527f6b656e206f776e6572206f7220617070726f76656420666f7220616c6c00000060648201526084016103f9565b61049a838361098a565b505050565b6104a933826109f8565b6104c55760405162461bcd60e51b81526004016103f9906116e4565b61049a838383610a56565b6104d8610bba565b6104e28484610c14565b6104ec8382610d9f565b6000816104f884610e6a565b604051602001610509929190611731565b60405160208183030381529060405290506105248482610d9f565b5050505050565b61049a8383836040518060200160405280600081525061065e565b6000818152600260205260408120546001600160a01b0316806102c65760405162461bcd60e51b8152602060048201526018602482015277115490cdcc8c4e881a5b9d985b1a59081d1bdad95b88125160421b60448201526064016103f9565b60006001600160a01b0382166106105760405162461bcd60e51b815260206004820152602960248201527f4552433732313a2061646472657373207a65726f206973206e6f7420612076616044820152683634b21037bbb732b960b91b60648201526084016103f9565b506001600160a01b031660009081526003602052604090205490565b610634610bba565b61063e6000610f6b565b565b6060600180546102db906116aa565b61065a338383610fbd565b5050565b61066833836109f8565b6106845760405162461bcd60e51b81526004016103f9906116e4565b6106908484848461108b565b50505050565b60606106a18261092b565b600082815260066020526040812080546106ba906116aa565b80601f01602080910402602001604051908101604052809291908181526020018280546106e6906116aa565b80156107335780601f1061070857610100808354040283529160200191610733565b820191906000526020600020905b81548152906001019060200180831161071657829003601f168201915b50505050509050600061075160408051602081019091526000815290565b90508051600003610763575092915050565b81511561079557808260405160200161077d929190611778565b60405160208183030381529060405292505050919050565b61079e846110be565b949350505050565b600880546107b3906116aa565b80601f01602080910402602001604051908101604052809291908181526020018280546107df906116aa565b801561082c5780601f106108015761010080835404028352916020019161082c565b820191906000526020600020905b81548152906001019060200180831161080f57829003601f168201915b505050505081565b6001600160a01b03918216600090815260056020908152604080832093909416825291909152205460ff1690565b61086a610bba565b6001600160a01b0381166108cf5760405162461bcd60e51b815260206004820152602660248201527f4f776e61626c653a206e6577206f776e657220697320746865207a65726f206160448201526564647265737360d01b60648201526084016103f9565b6108d881610f6b565b50565b60006001600160e01b031982166380ac58cd60e01b148061090c57506001600160e01b03198216635b5e139f60e01b145b806102c657506301ffc9a760e01b6001600160e01b03198316146102c6565b6000818152600260205260409020546001600160a01b03166108d85760405162461bcd60e51b8152602060048201526018602482015277115490cdcc8c4e881a5b9d985b1a59081d1bdad95b88125160421b60448201526064016103f9565b600081815260046020526040902080546001600160a01b0319166001600160a01b03841690811790915581906109bf82610546565b6001600160a01b03167f8c5be1e5ebec7d5bd14f71427d1e84f3dd0314c0f7b2291e5b200ac8c7c3b92560405160405180910390a45050565b600080610a0483610546565b9050806001600160a01b0316846001600160a01b03161480610a2b5750610a2b8185610834565b8061079e5750836001600160a01b0316610a448461035e565b6001600160a01b031614949350505050565b826001600160a01b0316610a6982610546565b6001600160a01b031614610a8f5760405162461bcd60e51b81526004016103f9906117a7565b6001600160a01b038216610af15760405162461bcd60e51b8152602060048201526024808201527f4552433732313a207472616e7366657220746f20746865207a65726f206164646044820152637265737360e01b60648201526084016103f9565b826001600160a01b0316610b0482610546565b6001600160a01b031614610b2a5760405162461bcd60e51b81526004016103f9906117a7565b600081815260046020908152604080832080546001600160a01b03199081169091556001600160a01b0387811680865260038552838620805460001901905590871680865283862080546001019055868652600290945282852080549092168417909155905184937fddf252ad1be2c89b69c2b068fc378daa952ba7f163c4a11628f55a4df523b3ef91a4505050565b6007546001600160a01b0316331461063e5760405162461bcd60e51b815260206004820181905260248201527f4f776e61626c653a2063616c6c6572206973206e6f7420746865206f776e657260448201526064016103f9565b6001600160a01b038216610c6a5760405162461bcd60e51b815260206004820181905260248201527f4552433732313a206d696e7420746f20746865207a65726f206164647265737360448201526064016103f9565b6000818152600260205260409020546001600160a01b031615610ccf5760405162461bcd60e51b815260206004820152601c60248201527f4552433732313a20746f6b656e20616c7265616479206d696e7465640000000060448201526064016103f9565b6000818152600260205260409020546001600160a01b031615610d345760405162461bcd60e51b815260206004820152601c60248201527f4552433732313a20746f6b656e20616c7265616479206d696e7465640000000060448201526064016103f9565b6001600160a01b038216600081815260036020908152604080832080546001019055848352600290915280822080546001600160a01b0319168417905551839291907fddf252ad1be2c89b69c2b068fc378daa952ba7f163c4a11628f55a4df523b3ef908290a45050565b6000828152600260205260409020546001600160a01b0316610e1a5760405162461bcd60e51b815260206004820152602e60248201527f45524337323155524953746f726167653a2055524920736574206f66206e6f6e60448201526d32bc34b9ba32b73a103a37b5b2b760911b60648201526084016103f9565b6000828152600660205260409020610e32828261183a565b506040518281527ff8e1a15aba9398e019f0b49df1a4fde98ee17ae345cb5f6b5e2c27f5033e8ce79060200160405180910390a15050565b606081600003610e915750506040805180820190915260018152600360fc1b602082015290565b8160005b8115610ebb5780610ea581611910565b9150610eb49050600a8361193f565b9150610e95565b60008167ffffffffffffffff811115610ed657610ed66114cf565b6040519080825280601f01601f191660200182016040528015610f00576020820181803683370190505b5090505b841561079e57610f15600183611953565b9150610f22600a86611966565b610f2d90603061197a565b60f81b818381518110610f4257610f4261198d565b60200101906001600160f81b031916908160001a905350610f64600a8661193f565b9450610f04565b600780546001600160a01b038381166001600160a01b0319831681179093556040519116919082907f8be0079c531659141344cd1fd0a4f28419497f9722a3daafe3b4186f6b6457e090600090a35050565b816001600160a01b0316836001600160a01b03160361101e5760405162461bcd60e51b815260206004820152601960248201527f4552433732313a20617070726f766520746f2063616c6c65720000000000000060448201526064016103f9565b6001600160a01b03838116600081815260056020908152604080832094871680845294825291829020805460ff191686151590811790915591519182527f17307eab39ab6107e8899845ad3d59bd9653f200f220920489ca2b5937696c31910160405180910390a3505050565b611096848484610a56565b6110a284848484611132565b6106905760405162461bcd60e51b81526004016103f9906119a3565b60606110c98261092b565b60006110e060408051602081019091526000815290565b90506000815111611100576040518060200160405280600081525061112b565b8061110a84611233565b60405160200161111b929190611778565b6040516020818303038152906040525b9392505050565b60006001600160a01b0384163b1561122857604051630a85bd0160e11b81526001600160a01b0385169063150b7a02906111769033908990889088906004016119f5565b6020604051808303816000875af19250505080156111b1575060408051601f3d908101601f191682019092526111ae91810190611a32565b60015b61120e573d8080156111df576040519150601f19603f3d011682016040523d82523d6000602084013e6111e4565b606091505b5080516000036112065760405162461bcd60e51b81526004016103f9906119a3565b805181602001fd5b6001600160e01b031916630a85bd0160e11b14905061079e565b506001949350505050565b60606000611240836112c6565b600101905060008167ffffffffffffffff811115611260576112606114cf565b6040519080825280601f01601f19166020018201604052801561128a576020820181803683370190505b5090508181016020015b600019016f181899199a1a9b1b9c1cb0b131b232b360811b600a86061a8153600a850494508461129457509392505050565b60008072184f03e93ff9f4daa797ed6e38ed64bf6a1f0160401b83106113055772184f03e93ff9f4daa797ed6e38ed64bf6a1f0160401b830492506040015b6d04ee2d6d415b85acef81000000008310611331576d04ee2d6d415b85acef8100000000830492506020015b662386f26fc10000831061134f57662386f26fc10000830492506010015b6305f5e1008310611367576305f5e100830492506008015b612710831061137b57612710830492506004015b6064831061138d576064830492506002015b600a83106102c65760010192915050565b6001600160e01b0319811681146108d857600080fd5b6000602082840312156113c657600080fd5b813561112b8161139e565b60005b838110156113ec5781810151838201526020016113d4565b50506000910152565b6000815180845261140d8160208601602086016113d1565b601f01601f19169290920160200192915050565b60208152600061112b60208301846113f5565b60006020828403121561144657600080fd5b5035919050565b80356001600160a01b038116811461146457600080fd5b919050565b6000806040838503121561147c57600080fd5b6114858361144d565b946020939093013593505050565b6000806000606084860312156114a857600080fd5b6114b18461144d565b92506114bf6020850161144d565b9150604084013590509250925092565b634e487b7160e01b600052604160045260246000fd5b600067ffffffffffffffff80841115611500576115006114cf565b604051601f8501601f19908116603f01168101908282118183101715611528576115286114cf565b8160405280935085815286868601111561154157600080fd5b858560208301376000602087830101525050509392505050565b6000806000806080858703121561157157600080fd5b61157a8561144d565b93506020850135925060408501359150606085013567ffffffffffffffff8111156115a457600080fd5b8501601f810187136115b557600080fd5b6115c4878235602084016114e5565b91505092959194509250565b6000602082840312156115e257600080fd5b61112b8261144d565b600080604083850312156115fe57600080fd5b6116078361144d565b91506020830135801515811461161c57600080fd5b809150509250929050565b6000806000806080858703121561163d57600080fd5b6116468561144d565b93506116546020860161144d565b925060408501359150606085013567ffffffffffffffff8111156115a457600080fd5b6000806040838503121561168a57600080fd5b6116938361144d565b91506116a16020840161144d565b90509250929050565b600181811c908216806116be57607f821691505b6020821081036116de57634e487b7160e01b600052602260045260246000fd5b50919050565b6020808252602d908201527f4552433732313a2063616c6c6572206973206e6f7420746f6b656e206f776e6560408201526c1c881bdc88185c1c1c9bdd9959609a1b606082015260800190565b600083516117438184602088016113d1565b6b3f636172644e756d6265723d60a01b908301908152835161176c81600c8401602088016113d1565b01600c01949350505050565b6000835161178a8184602088016113d1565b83519083019061179e8183602088016113d1565b01949350505050565b60208082526025908201527f4552433732313a207472616e736665722066726f6d20696e636f72726563742060408201526437bbb732b960d91b606082015260800190565b601f82111561049a57600081815260208120601f850160051c810160208610156118135750805b601f850160051c820191505b818110156118325782815560010161181f565b505050505050565b815167ffffffffffffffff811115611854576118546114cf565b6118688161186284546116aa565b846117ec565b602080601f83116001811461189d57600084156118855750858301515b600019600386901b1c1916600185901b178555611832565b600085815260208120601f198616915b828110156118cc578886015182559484019460019091019084016118ad565b50858210156118ea5787850151600019600388901b60f8161c191681555b5050505050600190811b01905550565b634e487b7160e01b600052601160045260246000fd5b600060018201611922576119226118fa565b5060010190565b634e487b7160e01b600052601260045260246000fd5b60008261194e5761194e611929565b500490565b818103818111156102c6576102c66118fa565b60008261197557611975611929565b500690565b808201808211156102c6576102c66118fa565b634e487b7160e01b600052603260045260246000fd5b60208082526032908201527f4552433732313a207472616e7366657220746f206e6f6e20455243373231526560408201527131b2b4bb32b91034b6b83632b6b2b73a32b960711b606082015260800190565b6001600160a01b0385811682528416602082015260408101839052608060608201819052600090611a28908301846113f5565b9695505050505050565b600060208284031215611a4457600080fd5b815161112b8161139e56fea264697066735822122017cc73b59c30a4e279c22bfe1880ec53c6e7d508d3993711530503cb8f1e373364736f6c63430008130033a264697066735822122022adc339c62903c6d52e1f28e68ebe405c9e5e533a651476a58c0ab344631e2764736f6c63430008130033",
    "sourcePath": "c:/Users/nesri/Videos/collectible-card-game-daar/contracts/src/Main.sol",
    "compiler": {
        "name": "solc",
        "version": "0.8.19+commit.7dd6d404"
    },
    "functionHashes": {
        "createCollection(string,uint256)": "64d54151",
        "getTokenURI(uint256)": "3bb3a24d",
        "mintCardToUser(address,uint256,uint256,uint256,string)": "74947a2e",
        "owner()": "8da5cb5b",
        "renounceOwnership()": "715018a6",
        "transferOwnership(address)": "f2fde38b"
    },
    "gasEstimates": {
        "creation": {
            "codeDepositCost": "1987800",
            "executionCost": "32952",
            "totalCost": "2020752"
        },
        "external": {
            "createCollection(string,uint256)": "infinite",
            "getTokenURI(uint256)": "infinite",
            "mintCardToUser(address,uint256,uint256,uint256,string)": "infinite",
            "owner()": "2367",
            "renounceOwnership()": "infinite",
            "transferOwnership(address)": "28421"
        }
    }
}